:060000000A128A110C280F
:10000800FE00030EF2000A08F3000A128A111528EE
:100018000A128A110F28F601F70183010A128A11C0
:100028001629831203130C1F1A281B287C281F0C5F
:10003800F000700C0F39003A031D232824284928A2
:100048001E08F0000310700C1E3E95001E080139B2
:10005800F000F00EF00D17087006DF3970069700F3
:10006800831603131E08F00007300310F00CFF3E40
:10007800031D39287008F100F10E831203131708C5
:100088007106EF39710697007B281F0CF000700C81
:100098000F39013A031D5128522877281E08F0000D
:1000A8000310700C2D3E9B001E080139F000F00E65
:1000B800F00D1D087006DF3970069D0083160313C6
:1000C8001E08F00007300310F00CFF3E031D6728E0
:1000D8007008F100F10E831203131D087106EF3941
:1000E80071069D007B281E08F0007008F6000C13AE
:1000F8000B1D7F28802891280B110130F000700813
:10010800F707FA3081007608770203188C288D28C3
:100118008F280614902806100B1173088A00720E97
:100128008300FE0E7E0E0900073083160317880031
:1001380089018316031305148514051585150516FD
:1001480085160517851783120313051085100511E9
:1001580085110512851205138513831603130610DE
:10016800861006118611061286120613861383124C
:10017800031306108610061186110612861206133E
:100188008613831603130F088F3960388F000F14F6
:10019800811201128111011181140110FA308312A8
:1001A800031381008B160B111F083F3940389F003D
:1001B800C3309F05831603139F131F129F12071541
:1001C80087149B3092003F3083120313970517085A
:1001D800F0390C3897001D08F0390C389D000F30A5
:1001E8009500CF3097050F309B001D128C100330FF
:1001F800920412158C1C01290229FE288C108316E2
:100208000313071187100C17831203130C130B1712
:100218008B171030F400F40B0F290000831203131E
:100228001F1408000A128A1198200A128A118312D0
:1002380003139F18202921291B291F0CF500750C71
:100248000F39003A031D29292A292F291F08C339E4
:1002580004389F003F291F0CF500750C0F39013A2F
:10026800031D372938293D291F08C33908389F003D
:100278003F29C3309F05C730F5004229F50B4129B6
:1002880045294629831203139F141B290A128A1130
:020298000C2830
:08400000FF3FFF3FFF3FFF3FC0
:04400E00D420FF3F7C
:00000001FF
